{
  "_format": "hh-sol-artifact-1",
  "contractName": "AlchemyMsg",
  "sourceName": "contracts/Alchemy/AlchemyMsg.sol",
  "abi": [
    {
      "inputs": [
        {
          "internalType": "string",
          "name": "_initMsg",
          "type": "string"
        }
      ],
      "stateMutability": "nonpayable",
      "type": "constructor"
    },
    {
      "anonymous": false,
      "inputs": [
        {
          "indexed": false,
          "internalType": "string",
          "name": "_oldMsg",
          "type": "string"
        },
        {
          "indexed": false,
          "internalType": "string",
          "name": "_newMsg",
          "type": "string"
        }
      ],
      "name": "msgUpdated",
      "type": "event"
    },
    {
      "inputs": [],
      "name": "getMsg",
      "outputs": [
        {
          "internalType": "string",
          "name": "",
          "type": "string"
        }
      ],
      "stateMutability": "view",
      "type": "function"
    },
    {
      "inputs": [],
      "name": "message",
      "outputs": [
        {
          "internalType": "string",
          "name": "",
          "type": "string"
        }
      ],
      "stateMutability": "view",
      "type": "function"
    },
    {
      "inputs": [
        {
          "internalType": "string",
          "name": "_newMsg",
          "type": "string"
        }
      ],
      "name": "updateMsg",
      "outputs": [],
      "stateMutability": "nonpayable",
      "type": "function"
    }
  ],
  "bytecode": "0x608060405234801561001057600080fd5b506040516106f93803806106f983398101604081905261002f916100e2565b8051610042906000906020840190610049565b5050610202565b828054610055906101b1565b90600052602060002090601f01602090048101928261007757600085556100bd565b82601f1061009057805160ff19168380011785556100bd565b828001600101855582156100bd579182015b828111156100bd5782518255916020019190600101906100a2565b506100c99291506100cd565b5090565b5b808211156100c957600081556001016100ce565b600060208083850312156100f557600080fd5b82516001600160401b038082111561010c57600080fd5b818501915085601f83011261012057600080fd5b815181811115610132576101326101ec565b604051601f8201601f19908116603f0116810190838211818310171561015a5761015a6101ec565b81604052828152888684870101111561017257600080fd5b600093505b828410156101945784840186015181850187015292850192610177565b828411156101a55760008684830101525b98975050505050505050565b600181811c908216806101c557607f821691505b602082108114156101e657634e487b7160e01b600052602260045260246000fd5b50919050565b634e487b7160e01b600052604160045260246000fd5b6104e8806102116000396000f3fe608060405234801561001057600080fd5b50600436106100415760003560e01c80638de8f28614610046578063b5fdeb231461005b578063e21f37ce14610079575b600080fd5b61005961005436600461031b565b610081565b005b610063610162565b6040516100709190610419565b60405180910390f35b6100636101f4565b600080805461008f90610461565b80601f01602080910402602001604051908101604052809291908181526020018280546100bb90610461565b80156101085780601f106100dd57610100808354040283529160200191610108565b820191906000526020600020905b8154815290600101906020018083116100eb57829003601f168201915b5050855193945061012493600093506020870192509050610282565b507fbf8edbc6e8d6bd396debe8f989caecc0ee53f429a66afc80138cd31ce92fe5678183604051610156929190610433565b60405180910390a15050565b60606000805461017190610461565b80601f016020809104026020016040519081016040528092919081815260200182805461019d90610461565b80156101ea5780601f106101bf576101008083540402835291602001916101ea565b820191906000526020600020905b8154815290600101906020018083116101cd57829003601f168201915b5050505050905090565b6000805461020190610461565b80601f016020809104026020016040519081016040528092919081815260200182805461022d90610461565b801561027a5780601f1061024f5761010080835404028352916020019161027a565b820191906000526020600020905b81548152906001019060200180831161025d57829003601f168201915b505050505081565b82805461028e90610461565b90600052602060002090601f0160209004810192826102b057600085556102f6565b82601f106102c957805160ff19168380011785556102f6565b828001600101855582156102f6579182015b828111156102f65782518255916020019190600101906102db565b50610302929150610306565b5090565b5b808211156103025760008155600101610307565b60006020828403121561032d57600080fd5b813567ffffffffffffffff8082111561034557600080fd5b818401915084601f83011261035957600080fd5b81358181111561036b5761036b61049c565b604051601f8201601f19908116603f011681019083821181831017156103935761039361049c565b816040528281528760208487010111156103ac57600080fd5b826020860160208301376000928101602001929092525095945050505050565b6000815180845260005b818110156103f2576020818501810151868301820152016103d6565b81811115610404576000602083870101525b50601f01601f19169290920160200192915050565b60208152600061042c60208301846103cc565b9392505050565b60408152600061044660408301856103cc565b828103602084015261045881856103cc565b95945050505050565b600181811c9082168061047557607f821691505b6020821081141561049657634e487b7160e01b600052602260045260246000fd5b50919050565b634e487b7160e01b600052604160045260246000fdfea2646970667358221220397fd06c53bf8b98472288a6408e535451ecd612d0ed977bc1adbc04ee3eb2d064736f6c63430008070033",
  "linkReferences": {},
  "deployedLinkReferences": {}
}